:020000040800F2
:1000000060180020290200084F27000895220008E8
:100010004D2700087D060008792B0008000000002D
:100020000000000000000000000000009101000836
:10003000ED07000800000000D5010008592700085E
:10004000430200084302000843020008430200087C
:10005000430200084302000843020008430200086C
:10006000430200084302000843020008430200085C
:10007000430200084302000843020008430200084C
:10008000430200084302000843020008430200083C
:10009000430200084302000843020008430200082C
:1000A000430200084302000843020008430200081C
:1000B0004302000843020008012800084302000828
:1000C00043020008430200084302000843020008FC
:1000D0004302000843020008430200086D2B000899
:1000E00043020008430200084302000800F002F83F
:1000F00000F03FF80AA090E8000C82448344AAF183
:100100000107DA4501D100F034F8AFF2090EBAE880
:100110000F0013F0010F18BFFB1A43F0010318473B
:100120005842000078420000103A24BF78C878C1D5
:10013000FAD8520724BF30C830C144BF04680C60ED
:10014000704700000023002400250026103A28BF35
:1001500078C1FBD8520728BF30C148BF0B60704739
:10016000732900F0E281002070471FB51FBD10B554
:1001700010BD00F0DEF91146FFF7F7FF02F05AFD5F
:1001800000F0FCF903B4FFF7F2FF03BC00F004FA3F
:10019000224B19680868B0E8F00F80F30988BFF3B4
:1001A0006F8F4FF0000080F311884EF00D0E7047F6
:1001B0000000000006480068006880F3088862B606
:1001C00061B6BFF34F8FBFF36F8F00DF00BF00BF7B
:1001D00008ED00E0EFF30980BFF36F8F0F4B1A6853
:1001E00020E9F00F106008B54FF0500080F311883F
:1001F000BFF34F8FBFF36F8F03F012FB4FF0000080
:1002000080F31188BDE8084019680868B0E8F00F6D
:1002100080F30988BFF36F8F704700BF580000203C
:10022000EFF3058070470000094880470948004700
:10023000FEE7FEE7FEE7FEE7FEE7FEE7FEE7FEE796
:10024000FEE7FEE704480549054A064B70470000F3
:10025000FD270008ED000008601200206018002053
:1002600060140020601400200FB41CB5074B06AAD0
:100270007B4469460090059800F02DF900206946FE
:1002800000F03CF91CBC5DF814FB00008902000082
:100290002DE9F0410E460446002020622046E16828
:1002A000884730B3252805D0D4E901219047206A3A
:1002B000401CF2E7E168204600278847050018D077
:1002C000A5F14100192802D820354FF400673246C5
:1002D000294620462760FFF743FF40B1012804D09C
:1002E000F61D26F007060836D8E7361DD6E728465D
:1002F000DAE7206ABDE8F08170B50C460546012AB0
:1003000005D02878800600D5EA69002302E00123A1
:1003100005E05B1C934202D2E05C0028F9D1A86999
:10032000E618C01AA861286A184428622846AFF364
:10033000008004E0D5E9012114F8010B9047B44294
:10034000F8D32846AFF3008070BD10B5431C02E01F
:1003500010F8011B71B18107FAD14FF0013202C8C8
:100360008C1A8C4314EAC211F9D0C01A0A0603D0C1
:10037000C01E10BDC01A10BD0A0401D0801E10BDE1
:100380000902FCD0401E10BD032A40F2308010F05C
:10039000030C00F0158011F8013BBCF1020F624420
:1003A00098BF11F801CB00F8013B38BF11F8013BB1
:1003B000A2F1040298BF00F801CB38BF00F8013B5E
:1003C00011F0030300F02580083AC0F0088051F8CE
:1003D000043B083A51F804CBA0E80810F5E7121DD9
:1003E0005CBF51F8043B40F8043BAFF30080D207F8
:1003F00024BF11F8013B11F801CB48BF11F8012BC4
:1004000024BF00F8013B00F801CB48BF00F8012BE6
:10041000704710B5203AC0F00B80B1E81850203A70
:10042000A0E81850B1E81850A0E81850BFF4F5AF94
:100430005FEA027C24BFB1E81850A0E8185044BF1E
:1004400018C918C0BDE810405FEA827C24BF51F88B
:10045000043B40F8043B08BF7047D20728BF31F87F
:10046000023B48BF11F8012B28BF20F8023B48BFD0
:1004700000F8012B70474FF0000200B51346944678
:100480009646203922BFA0E80C50A0E80C50B1F1EC
:100490002001BFF4F7AF090728BFA0E80C5048BF00
:1004A0000CC05DF804EB890028BF40F8042B08BF9E
:1004B000704748BF20F8022B11F0804F18BF00F89A
:1004C000012B7047704770477047000001694A1C54
:1004D00002610878704700B58FB0CDE90131002185
:1004E000059105497944CDE9031011466846FFF7A7
:1004F000CFFE0FB000BD0000E5FFFFFF0A6802F865
:10050000010B0A60704710B5436913B1AFF3008067
:1005100001E0FFF7F1FE012010BD127800F1240187
:100520000A7000224A700122EDE711684FF0FF3295
:10053000E9E7754600F02CF8AE46050069465346DB
:1005400020F00700854618B020B5FFF77BFEBDE818
:1005500020404FF000064FF000074FF000084FF02A
:10056000000B21F00701AC46ACE8C009ACE8C009BB
:10057000ACE8C009ACE8C0098D46704710B5044628
:10058000AFF300802046BDE81040FFF7FBBD000040
:10059000004870470012002001491820ABBEFEE75A
:1005A000260002007047000070B5044600688168AC
:1005B000C943C90717D1816821F00101816000F0AA
:1005C00003FD05460AE000BF00F0FEFC401B0228C8
:1005D00004D920688068C043C00706D020688068BE
:1005E000C043C007F0D0002070BDA06A40F01000EA
:1005F000A062E06A40F00100E062012070BD0000EE
:10060000F8B500260446009600688168C943C9070A
:100610002DD0816841F001018160164816490068BB
:10062000B0FBF1F000E0401E00900028FBD100F08C
:10063000CBFC054616E000BF00F0C6FC401B0228BC
:1006400010D920688068C043C0070BD0A06A40F072
:100650001000A062E06A40F00100E06284F82460CB
:100660000120F8BD20688068C043C007E4D10020A5
:10067000F8BD00005400002040420F00FEE710B516
:1006800004460298216022716371A0712820A07233
:100690000620E0710C202072142060720820E072A5
:1006A000322000F089FB00223321204600F069F857
:1006B00000223321204600F064F8052000F07CFB86
:1006C00000223221204600F05CF8052000F074FB87
:1006D00000222021204600F054F8052000F06CFB99
:1006E000E1790022204600F04CF8217A00222046D1
:1006F00000F047F8617A0022204600F042F8A17A23
:100700000022204600F03DF800220121204600F0A2
:1007100038F820460022BDE81040022100F031B830
:1007200030B4447900238C4201D8641EE1B284794C
:10073000944201D8641EE2B232B1012A06D0022AE4
:1007400006D0032A06D007E00B4605E0403102E060
:10075000143100E05431CBB230BC43F080010022B0
:1007600000F00FB8012200F00CB870B50C46054639
:1007700003E02846641CFFF7F5FF21780029F8D133
:1007800070BD7CB506460807040EF07A01F0F0054E
:1007900018B145F0080544F00804012A01D02AB137
:1007A00008E045F0010544F0010403E025F00105EF
:1007B00024F0010445F004008DF80400012000F04D
:1007C000FBFA8DF8055044F004008DF80600012076
:1007D00000F0F2FA4FF47A708DF80740009031790A
:1007E000042301AA306800F0B9FC7CBD704700000A
:1007F000184C4FF0FF354FF47A762946E06802F046
:1008000023FB154800F088F9134800F0AFF8C0B298
:10081000A070B42811484FF001024FF00A0108D22D
:10082000FFF77EFF0EA10D48FFF79FFF02F0B6F91C
:1008300005E0FFF775FF0CA10848FFF796FF064893
:1008400000F030FA304602F0ABFAE06802F0D4FA79
:10085000D3E7000000000020DC0000206802002038
:100860004275726E00000000202020202020200011
:10087000F8B50024009490F824202546012A12D0CF
:10088000012280F824204A681F23072A0DD2066817
:10089000776B521E02EB820293409F430B6893409A
:1008A0001F43776319E00220F8BD06680D2A0AD2BB
:1008B000376BD21F02EB820293409F430B68934039
:1008C0001F43376309E0F76A0D3A02EB8202934057
:1008D0009F430B6893401F43F7620A68072306682B
:1008E0000A2A0AD3F7680A3A02EB420293409F436E
:1008F0008B6893401F43F76008E0376902EB4202C0
:1009000093409F438B6893401F4337610A68102AC6
:1009100001D0112A20D1124B02689A4217D1936854
:100920001B0219D4936843F40003936009681029EB
:1009300012D10C490C4A0968B1FBF2F101EB8101BB
:10094000490000E0491E00910029FBD104E0816AC2
:1009500041F020018162012480F824502046F8BD36
:10096000002401405400002040420F000068C06C89
:10097000704700002DE9F0414FF0000704003D46AC
:100980007ED0A06A002628B9E66284F8246020465A
:1009900000F07EF82046FFF707FEA16AC90600D4E2
:1009A00020B1A06A40F01000A06269E0A16A21F4C1
:1009B000885141F00201A1626268E169237B0A4328
:1009C00047EA43010A43A1684FF48077B94209D04E
:1009D000012907D05FF0000194F814C0BCF1010FA9
:1009E00002D00AE03946F7E7F3B1A36A43F02003E7
:1009F000A362E36A43F00103E3622368D3F804C00F
:100A00002CF4694C4CEA010CC3F804C021688B68D3
:100A1000DFF870C003EA0C0313438B60A168B9428E
:100A20000BD0012909D00CE0DFF85CC0A3690CEB06
:100A300043330B4343F40061DFE7218A0D05A5F53D
:100A400080152168CB6A23F470032B43CB622168A5
:100A500089680E4B1940914208D1E662A16A21F0E3
:100A6000020141F00101A162BDE8F081A06A20F01D
:100A7000020040F01000A062E06A40F00100E06275
:100A80000120F1E7FDF7E1FF00E0FFFFFE0E1FFF91
:100A900010B586B0002100910191029103911A4C8A
:100AA00003681A4903221A48A34211D18B6943F4FF
:100AB00000738B618B6903F4007304938B6943F0BB
:100AC00004038B61896901F004010491102113E092
:100AD000104CA34215D18B6943F480638B618B6901
:100AE00003F4806304938B6943F004038B61896989
:100AF00001F0040104912021CDE90012694600F0C3
:100B00006DF906B010BD0000002401400010024045
:100B1000000801400028014070B5044690F8240008
:100B200001280DD0012084F824002046FFF768FD3D
:100B300002004FF0000005D084F82400104670BD7C
:100B4000022070BDA16A40F20123994341F48071F3
:100B5000A1621F4D23681F49AB4218D10E6816F4DD
:100B6000702F14D0A66A46F48016A6620E68760529
:100B700005D5A66A26F4005646F48056A662A66AF3
:100B8000F6040AD5E66A26F00606E66206E0A66ADC
:100B900026F48016A6625E68E9E7E06284F8240025
:100BA0006FF00200186020688368C3F34243072B8C
:100BB00005D1A84208D1096811F4702F04D08168CA
:100BC00041F480118160B9E7816841F4A001F9E73F
:100BD000002801400424014070B5044690F8240028
:100BE00001280DD0012084F824002046FFF708FDDD
:100BF00002004FF0000005D084F82400104670BDBC
:100C0000022070BDA16A40F60163994341F48071EE
:100C1000A162224D23682249AB4218D10E6816F416
:100C2000702F14D0A66A46F48016A6620E68760568
:100C300005D5A66A26F4005646F48056A662A66A32
:100C4000F6040AD5E66A26F00606E66206E0A66A1B
:100C500026F48016A6625E68E9E7E06284F8240064
:100C60006FF0020018602068436843F0200343607F
:100C700020688368C3F34243072B05D1A84208D1FB
:100C8000096811F4702F04D0816841F480118160EB
:100C9000B4E7816841F4A001F9E7000000280140B1
:100CA0000424014010B5044690F82400012807D020
:100CB000012084F824002046FFF776FC10B107E0FD
:100CC000022010BDA16A21F4885141F00101A16206
:100CD000002184F8241010BD10B590F821100022D6
:100CE000022905D00421816380F82020012010BD55
:100CF00001680B6823F00E030B6001680B6823F09A
:100D000001030B6090F84030C46B012101FA03F33A
:100D1000636080F8211080F82020104610BD00008C
:100D200010B590F821100024022903D0042181631A
:100D300001243DE001680A6822F00E020A600168A1
:100D40000A6822F001020A601A4A0168914201D140
:100D5000012121E0174A1432914201D110211BE0F8
:100D6000144A2832914201D1891515E0114A3C32CA
:100D7000914201D189140FE00E4A5032914202D1C2
:100D80004FF4803108E00B4A6432914202D14FF4B3
:100D9000801101E04FF08071064A083A516001214C
:100DA00080F82110002180F82010416B01B18847A4
:100DB000204610BD0800024070B5044600F004F95A
:100DC0000546601C02D004480078044400F0FCF89A
:100DD000401BA042FAD370BD480000202DE9F84F17
:100DE000DFF8B8910024A9F1040B23460F2709F17D
:100DF000040AABF1040EC9E00125A5402A40AA422D
:100E00007DD1674ED1F804C0ACEB0608B44532D0B2
:100E100014DCBCF1030F3AD009DCBCF1000F2AD07E
:100E2000BCF1010F1CD0BCF1020F31D11DE0BCF1AF
:100E3000110F17D0BCF1120F2AD119E0B8F5881F95
:100E400019D006DCB8F5803F15D0B8F5801F1FD14A
:100E500011E0B8F5001F0ED0B8F5041F18D10AE054
:100E6000CB6815E0CB681B1D12E0CB6808330FE0A0
:100E7000CB680C330CE08B682BB1012B4FF00803CF
:100E800003D0456104E0042302E0056100E0002393
:100E9000FF2A01D8064601E000F104064FEA840566
:100EA00001D9A5F12005D6F8008007FA05FC28EA4B
:100EB0000C0803FA05F548EA0508C6F800804D68F5
:100EC000ED0062D5374DAE6946F00106AE61AD6901
:100ED00024F0030605F001050095334D06EB050CE3
:100EE000DCF80850A607360F07FA06F825EA0805C9
:100EF000DFF8B880404503D14FF0000817E044E028
:100F0000DFF8AC80404502D14FF001080FE0DFF878
:100F1000A480404502D14FF0020808E0DFF8988035
:100F2000404502D14FF0030801E04FF0040808FAF1
:100F300006F848EA0508CCF808804D68D9F8006042
:100F4000ED024D4601D5164300E096432E604D68F4
:100F5000DAF80060AD02554601D5164300E096432D
:100F60002E604D68DBF80060AD035D4601D5164389
:100F700000E096432E604D68DEF80060ED03754694
:100F800001D5164300E096432E60641C0D682A4686
:100F9000E5407FF431AFBDE8F88F00000804014060
:100FA0000000111000100240000001400008014044
:100FB000000C014000100140001401400AB1016121
:100FC00070470904FBE70000014880687047000093
:100FD0004800002070B5040025D094F83D0000259D
:100FE00020B984F83C50204600F04EF9242084F8C3
:100FF0003D002068016821F001010160206801685E
:1010000041F4004101602068016821F40041016061
:1010100000F05EFB4D4A6168914201D84C4900E006
:101020004C49884201D2012070BD4B492368B0FB76
:10103000F1F15E6826F03F060E435E6063689342FE
:1010400006D94FF4967359434FF47A73B1FBF3F119
:101050002368491C1E6A26F03F0631431962616805
:10106000914210D84900401EB0FBF1F2521CC2F36D
:101070000B02042A01D2042022E0B0FBF1F0401C54
:10108000C0F30B001CE0A268F2B301EBC10303EB59
:101090000116431EB3FBF6F35B1C43F480431B05B0
:1010A00049D092B301EBC10202EB0111401EB0FB2B
:1010B000F1F0401CC0F30B0040F4804040F40040CD
:1010C0002168CA694CF6FF739A431043C861D4E99A
:1010D000071001432068026822F0C002114301603A
:1010E000D4E9030101432068826848F2FF339A4340
:1010F00011438160D4E9050108432168CA6822F0E0
:10110000FF021043C86001E00EE016E020680168AD
:1011100041F0010101602564202084F83D00256331
:1011200084F83E50002070BD01EB4106431EB3FB26
:10113000F6F35B1CB3E70120C2E701EB4101401E5F
:10114000B0FBF1F0401CC0F30B00B7E7A086010034
:1011500080841E0000093D0040420F002DE9F84F39
:101160001F4690468A460446DDF82890FFF72CFF7C
:10117000054694F83D0020287FD1192301224049DB
:101180002046009501F018F9002876D194F83C002B
:10119000012872D0012084F83C0020680168C9074A
:1011A00003D1016841F0010101602068016821F468
:1011B00000610160212084F83D00102084F83E0089
:1011C00000262664C4F824806785608D20852D481C
:1011D000E0622B464A465146204601F073F890B92A
:1011E000206841698069009036E02A4649462046D9
:1011F00001F088F950B1206C042804D120680168FE
:1012000041F4007101600120BDE8F88F606A216837
:1012100000780861606A401C6062618D491E6185CA
:10122000218D491E89B2218522685369DB435B0702
:101230000BD451B100781061606A401C6062608D0F
:10124000401E6085208D401E20852A464946204646
:1012500001F086F80028CED1208D0028C5D154F8A1
:101260003D0B016841F400710160202004F81E0963
:10127000E67766770020C7E7FFE70220C4E70000B3
:10128000020010000000FFFF10B586B000210091A1
:1012900001910291039100680F4988421AD10F4CC5
:1012A000A06940F00800A061A069694600F008004C
:1012B0000490C02000901220019003200390084861
:1012C000FFF78CFDE06940F40010E061E06900F494
:1012D0000010049006B010BD005400400010024001
:1012E000000C014002488168027811448160704717
:1012F00048000020074810B5016841F01001016066
:10130000032000F0A7F80F2000F006F800F050F8D6
:10131000002010BD0020024030B505461F4887B0B0
:10132000C16941F00401C161C06906A900F004006F
:10133000009001A800F0ACF90498B0B100F0C8F931
:1013400040001749174AB0FBF1F11748491E0260E7
:10135000416040F2E7320021C0E9032181608161F0
:1013600000F0C2FB040003D015E000F0B1F9E8E79B
:101370000D4800F0FBFB04000DD11E2000F03CF8EE
:10138000102D07D2002229461E2000F043F80748FE
:10139000056000E0012407B0204630BD0010024087
:1013A00040420F0000080040C80400204C0000200C
:1013B0000F4808B5816941F001018161816901F03F
:1013C00001010091C16941F08051C161C0690022F1
:1013D00000F0805000900F21901E00F01BF805488F
:1013E000416821F0E06141F00071416008BD0000FA
:1013F0000010024000000140002809DB00F01F023D
:10140000012191404009800000F1E020C0F8001166
:1014100070470000F0B40E4B1B680C46C3F3022368
:10142000C3F10705042D00D90425191D072901D290
:10143000002300E0DB1E012606FA05F1491E2140CB
:1014400099409E40761E16403143F0BC01F095BB9A
:101450000CED00E0064900F0070208684FF6FF03B4
:10146000184040EA0220034A104308607047000019
:101470000CED00E00000FA052DE9F8430546007880
:10148000354CC00754D0E0690026C00008D4E0699C
:1014900040F08050E061E069012600F0805000904B
:1014A0002E480168C90512D40168804641F4807154
:1014B0000160FFF789FD074605E000BFFFF784FDE7
:1014C000C01B642823D8D8F80000C005F6D5206AD0
:1014D00010F4407021D0A98801F4407181421CD0E1
:1014E000206A1F49012220F440700A6000220A602D
:1014F0002062C00711D0FFF767FD074641F2883828
:1015000008E000BFFFF760FDC11B414502D9032081
:10151000BDE8F883206A8007F4D5206A696820F462
:101520004070084320621EB1E06920F08050E06105
:101530002878800705D56068A96820F440400843F2
:1015400060602878C00605D56068E96820F48000EE
:10155000084360600020DBE700100240007000409C
:10156000400442422DE9F0470F46050061D0434E4A
:10157000306800F00700B84209D2306820F0070058
:1015800038433060306800F00700B84251D1286815
:101590003B4C810712D5400703D5606840F4E060FA
:1015A00060602878000703D5606840F46050606090
:1015B0006068A96820F0F000084360602878C007E0
:1015C00028D06868012810D02168022810D0890727
:1015D00000292EDA616821F0030101436160FFF701
:1015E000F3FC804641F288390DE021688903EFE77A
:1015F0008901EDE7FFF7E8FCA0EB0801494502D9B6
:101600000320BDE8F0876068696800F00C00B0EB6B
:10161000810FEFD1306800F00700B8420BD9306875
:1016200020F0070038433060306800F00700B8420F
:1016300001D00120E5E72878400705D56068E96812
:1016400020F4E060084360602878000706D56068F1
:10165000296920F4605040EAC100606000F058F849
:101660006168084AC1F30311515CC840064908602B
:1016700006480068FFF750FE0020C2E70020024045
:10168000001002403E430008540000204C0000209F
:101690000F2202600C4A536803F00303436053684F
:1016A00003F0F0038360536803F4E063C36052689F
:1016B0004FF4E06303EAD20202610448006800F0DC
:1016C0000700086070470000001002400020024040
:1016D0000448054900684968044AC1F30221515C85
:1016E000C840704754000020001002404E430008DC
:1016F0000448054900684968044AC1F3C221515CA5
:10170000C840704754000020001002404E430008BB
:101710000E4A51680E4801F00C03042B11D0082B1F
:101720000FD10C48C1F38343C903C05C0AD551688B
:10173000084AC1F34041921E515C054A5043B0FB38
:10174000F1F0704704494843704700000010024020
:1017500000127A002E43000800093D002DE9F84FE1
:10176000040070D02078C04DC00749D06868C0F32D
:101770008100012807D06868C0F38100022809D1E0
:101780006868C00306D52868800339D560680028DA
:10179000E7D035E06068B0F5803F0BD010B1B0F510
:1017A000A02F11D0286820F480302860286820F409
:1017B000802002E0286840F480302860606890B1A2
:1017C000FFF702FC06460AE0286840F48020286003
:1017D000F0E700BFFFF7F8FB801B642873D8286888
:1017E0008003F7D50CE0FFF7EFFB064605E000BFEE
:1017F000FFF7EAFB801B6428F0D828688003F7D441
:1018000020789A4E80074FF001094FF0000839D533
:10181000686810F00C0F07D06868C0F381000228D8
:1018200009D16868C00306D42868800714D52069E8
:10183000012808D110E02069B0B1C6F80090FFF788
:10184000C3FB074605E00AE1FFF7BEFBC01B022809
:10185000C4D828688007F7D52868616920F0F800A7
:1018600040EAC10028600DE0C6F80080FFF7ACFB3D
:10187000074604E0FFF7A8FBC01B022823D828680E
:101880008007F7D4207800072CD57948A169D9B111
:10189000C0F80090FFF798FB074604E0FFF794FBC1
:1018A000C01B02280FD8686A8007F7D571484FF42B
:1018B000FA510068B0FBF1F0009000BF0098411EA3
:1018C0000091FAD20EE080E0C0F80080FFF77CFBC8
:1018D000074604E0FFF778FBC01B022875D8686A4A
:1018E0008007F7D42078400760D5E8690027C0005A
:1018F00008D4E86940F08050E861E869012700F009
:10190000805000905C480168C90513D40168834683
:1019100041F480710160FFF757FB824606E000BF8B
:10192000FFF752FBA0EB0A0064284ED8DBF800005A
:10193000C005F5D5E06801280AD008B1052813D004
:10194000286A20F001002862286A20F0040002E0E2
:10195000286A40F001002862E06841F2883B98B1B3
:10196000FFF732FB82460BE0286A40F00400286251
:10197000EEE700BFFFF728FBA0EB0A0159455AD854
:10198000286A8007F6D50CE0FFF71EFB824605E0CB
:10199000FFF71AFBA0EB0A0159454CD8286A8007CB
:1019A000F6D41FB1E86920F08050E861E06988B39F
:1019B0006968C1F38101022944D00228C6F8608019
:1019C00004D0FFF701FB044638E034E0FFF7FCFAEF
:1019D000074604E0FFF7F8FAC01B02282BD8286856
:1019E0008001F7D4206AB0F5803F05D16868A1680E
:1019F00020F4003008436860D4E9080108436968AE
:101A000021F4741108436860C6F86090FFF7DCFAAF
:101A1000044606E025E000BFFFF7D6FA001B0228C7
:101A200009D828688001F7D51BE000BFFFF7CCFA82
:101A3000001B022802D90320BDE8F88F2868800126
:101A4000F4D40EE00128F7D06868226A00F48031EF
:101A5000914204D1616A00F47010884201D00120E3
:101A6000EAE70020E8E700000010024000004242E0
:101A700080044242540000200070004070477047CC
:101A800070B590F83C20012A26D0012480F83C4013
:101A9000022280F83D2003685A689D6822F0700693
:101AA0000A6832435A600D4B02689A4208D0B2F17C
:101AB000804F05D00A4B9A4202D00A4B9A4204D179
:101AC000496825F080031943916080F83D4000216A
:101AD00080F83C10084670BD022070BD002C01400B
:101AE000000400400008004010B5040003D094F842
:101AF0003D0010B107E0012010BD002084F83C003B
:101B0000204600F01FF8022084F83D00211D2068C7
:101B100000F07CFE012084F8460084F83E0084F842
:101B20003F0084F8400084F8410084F8420084F8C3
:101B3000430084F8440084F8450084F83D00002008
:101B400010BD000008B500680649884208D1064863
:101B5000C16941F00201C161C06900F0020000905A
:101B600008BD0000000400400010024090F83D1045
:101B7000012901D001207047022180F83D10016841
:101B8000CA6842F00102CA6000680B49884208D066
:101B9000B0F1804F05D00949884202D008498842F7
:101BA00004D1816801F00701062903D0016841F0E2
:101BB0000101016000207047002C0140000400403A
:101BC0000008004070B5044690F83C00002501284C
:101BD00017D0012684F83C60022084F83D0020687C
:101BE000826822F0770222F47F42826008685028DF
:101BF00038D00DDC20284FD005DC90B3102811D14F
:101C00004AE0022070BD302846D040280AD13BE08F
:101C100060282FD070280DD0B0F5805F03D0B0F5CC
:101C2000005F12D0012584F83D60002084F83C005C
:101C3000284670BDCB68D1E90121206800F01CFE68
:101C40002068816841F0770109E0CB68D1E9012182
:101C5000206800F011FE2068816841F480418160B5
:101C6000E1E719E0CA684968206800F017FE5021D2
:101C7000206806E0CA684968206800F020FE6021FC
:101C8000206800F003FECEE7CA684968206800F0CB
:101C900005FE40212068F4E7226801461046F0E77F
:101CA000704770B50446006801694FF00005C943EC
:101CB000890715D4C168C943890711D4E91E016198
:101CC00001202077206880698007204602D0FFF736
:101CD000E7FF04E000F098F8204600F096F825773A
:101CE00020680169C943490717D4C168C943490736
:101CF00013D46FF00401016102202077206880690D
:101D000010F4407F204602D0FFF7CAFF04E000F045
:101D10007BF8204600F079F8257720680169C943EF
:101D2000090716D4C168C943090712D46FF0080126
:101D30000161042020772068C0698007204602D016
:101D4000FFF7AEFF04E000F05FF8204600F05DF81A
:101D5000257720680169C943C90617D4C168C943FA
:101D6000C90613D46FF010010161082020772068A4
:101D7000C06910F4407F204602D0FFF791FF04E0D5
:101D800000F042F8204600F040F82577206801690D
:101D9000C943C90708D1C168C943C90704D1891E0D
:101DA0000161204600F032F820680169C943090644
:101DB00009D4C168C943090605D46FF080010161E7
:101DC0002046FFF75BFE20680169C943490609D434
:101DD000C168C943490605D46FF04001016120463E
:101DE00000F01EF820680169C94389060BD4C16858
:101DF000C943890607D46FF0200101612046BDE880
:101E00007040FFF73CBE70BD7047704700680349E3
:101E1000884201D1FFF766BA704700000008004011
:101E20007047704770470000F8B5016804460868BD
:101E3000CA684B6910F00F0F4FF0000559D003F03E
:101E4000010602F49077374365D0C10705D0D1056C
:101E500003D5616C41F001016164410705D5D907E3
:101E600003D0616C41F002016164810705D5D90797
:101E700003D0616C41F004016164010707D502F0F1
:101E80002001314303D0616C41F008016164616C51
:101E900000293AD0800604D5900602D5204600F0ED
:101EA0004FFD20684069616CC0F38010090700D4C1
:101EB00060B3204600F01DFD20684069400621D532
:101EC0002068143050E8001F21F0400140E8001263
:101ED000002AF5D1E06BA8B16D494163E06BFEF7D4
:101EE0001FFF002811D0E06B416B01B0BDE8F0404E
:101EF000084783060FD593060DD52046BDE8F84068
:101F000000F01EBD2046FFF78DFFF8BD2046FFF70D
:101F100089FF6564F8BD266B2023012E7CD1C6069F
:101F20007AD5D60678D508684868009048694FF099
:101F30000206400640D5E16B086840680004000CCA
:101F4000E8D0A28D8242E5D9E085886920282DD08D
:101F500020680C3050E8001F21F4807140E8001226
:101F6000002AF5D12068143050E8001F21F001014B
:101F700040E80012002AF5D12068143050E8001F14
:101F800021F0400140E80012002AF5D184F84230E7
:101F9000256320680C3050E8001F21F0100140E854
:101FA0000012002AF5D1E06BFEF796FE6663A08D65
:101FB000E18D401A81B22AE0A08DE18D401A81B2F4
:101FC000E08D0028A6D00029A4D022680C3252E867
:101FD000000F20F4907042E80007002FF5D1206830
:101FE000143050E8002F22F0010240E80027002FB3
:101FF000F5D184F84230256320680C3050E8002F7A
:1020000022F0100240E80023002BF5D16663204641
:10201000FFF707FFF8BDFFE705062BD5150629D505
:1020200094F841002128F5D1A068B0F5805F01D176
:102030002069B0B1206A411C2162216800784860A3
:10204000E08C401E0004000CE084E3D12068C168ED
:1020500021F08001C1602068C16841F04001C16089
:10206000D8E7206A0088C0F308004860206A801C16
:102070002062E5E74006CDD55006CBD5CA6820469C
:1020800022F04002CA6084F8413000F002F9C1E752
:10209000E328000870B5040004D094F8410000253E
:1020A00010B106E0012070BD84F84050204600F0D9
:1020B00023F8242084F841002068C16821F40051ED
:1020C000C160204600F09EFC2068016921F4904127
:1020D00001612068416921F02A0141612068C168DD
:1020E00041F40051C1606564202084F8410084F807
:1020F00042006563002070BD30B585B000240094B7
:102100000194029403942B4D03682B48022103226F
:10211000AB4222D1C36943F40033C361C36903F402
:1021200000330493836943F0040383618069234D82
:1021300000F0040004900420CDE9000103926946F8
:102140002846FEF74BFE0820CDE9000469462846E4
:102150000294FEF743FE05B030BD194DAB42FAD1F3
:10216000C36943F48023C361C36903F480230493E8
:10217000836943F0080383618069039200F00800DB
:1021800004902815CDE900010E4D69462846FEF75A
:1021900025FEE814CDE90004694628460294FEF7BE
:1021A0001DFE002205212720FFF734F92720FFF725
:1021B00023F9D0E70044004000100240000801402D
:1021C00000480040000C014090F84230202B01D024
:1021D0000220704721B11AB10023036300F06EBCE6
:1021E00001207047012202490248FFF7EDBF0000BD
:1021F00003000020D80100202DE9F843044690F8A0
:1022000041001F4616460D46202802D00220BDE898
:10221000F8837DB176B100206064212084F841000C
:10222000FEF7D2FEA6848046E684A068B0F5805F03
:1022300002D003E00120EAE7206910B12E46002514
:102240000EE000260CE08021204600F052FCA0B9F0
:10225000AEB116F8010B21684860E08C401EE084A6
:10226000E08C43464FF0000200970028EBD14FF07E
:102270004001204600F03DFC30B10320C7E735F8AF
:10228000020BC0F30800E6E7202084F8410000209C
:10229000BDE77047FEE701684A69D24352050FD493
:1022A0006FF480624A61002140F8301F202242739F
:1022B0008173026942F004020261017301207047D8
:1022C00000207047F8B50446C06A1E460D46174602
:1022D000082807D0012805D010F5803F02D0206BD8
:1022E000122804D12068016841F48071016013460E
:1022F00000224FF001112046009600F05DF840B139
:1023000020680068C00502D54FF4007020640320E7
:10231000F8BD2069B0F5804F0ED00620216800EA94
:10232000D51040F0F000086133463A460B4920468C
:1023300000F08AF878B902E005F0FE0000E0E8B2AB
:1023400021680861054933463A46891F204600F056
:102350007BF80028DCD00120F8BD00000800010057
:1023600070B516460D4604461EE02046FFF793FF63
:1023700008B1012070BD681C16D0FEF725FE801B39
:10238000A84200D885B920684069C04340070BD5F2
:10239000002044F8300F20216173A073216941F0BF
:1023A000200121612073E4E720684069C0434007B1
:1023B000DBD4002070BD00002DE9F0479846174699
:1023C0000D460446C1F30746DDF820902AE000BF21
:1023D000B8F1FF3F26D0FEF7F7FDA0EB090141451C
:1023E00002D8B8F1000F1DD12068012E16D08069E7
:1023F00025EA00000004000C12D00020B84211D1E0
:10240000002044F8300F20216173A073216941F04E
:102410002001216120730120BDE8F0874069E7E7D2
:102420000120EBE72068012E0AD0806925EA000030
:102430000004000C06D00020B842C9D00020EBE711
:102440004069F3E70120F7E72DE9F0479846164683
:102450000D4604464FF000094FF0200AC1F307472C
:1024600023E020684069C043400515D42068016816
:1024700041F40071016021686FF480604861C4F824
:10248000309084F83DA084F83E90216C41F0040126
:10249000216484F83C9021E0701C06D0FEF794FD86
:1024A000A0EB0800B04203D816B1012F1FD021E0E5
:1024B0002068012F15D0806925EA00000004000C77
:1024C00018D000BF44F8309F84F80DA084F80E9017
:1024D000216941F02001216184F80C900120BDE8C0
:1024E000F087406925EA00000004000CEAD120686A
:1024F000406901E02068806925EA00000004000CC2
:10250000AFD1ECE770B516460D4604461EE02046F6
:10251000FFF7C1FE08B1012070BD681C16D0FEF7A0
:1025200053FD801BA84200D885B920684069C0438C
:1025300000060BD5002044F8300F20216173A073F2
:10254000216941F0200121612073E4E7206840699E
:10255000C0430006DBD4002070BD0000154C4FF4D2
:102560007A751548FEF7D8FA1348FEF7FFF9C1B29D
:102570006170FE2911484FF001024FF0000108D9A7
:10258000FEF7CEF80EA10D48FEF7EFF800F006FBBF
:1025900005E0FEF7C5F80DA10848FEF7E6F8064885
:1025A000FEF780FB284600F0FBFBE06800F024FC0F
:1025B000D7E70000000000200C0100206802002086
:1025C00048617665206761730000000020202020AC
:1025D00020202020000000003EB500241148009477
:1025E000019402940E49846001600125057304750D
:1025F00005614FF460214460C161FEF7BBF908B189
:1026000072B6FEE70420CDE900056946029405484C
:10261000FEF72EF9002801D072B6FEE73EBD00009D
:1026200000240140DC0000203EB500241148009445
:10263000019402940E4984600160012505730475BC
:1026400005614FF460214460C161FEF793F908B160
:1026500072B6FEE70520CDE90005694602940548FB
:10266000FEF706F9002801D072B6FEE73EBD000075
:10267000002801400C01002030B585B00024174827
:102680000094019402940394816941F020018161D6
:10269000816901F020010491816941F004018161A7
:1026A000816901F004010491816941F008018161AF
:1026B00080690B4D00F0080004900022022128469A
:1026C000FEF77CFC02210120CDE90010CDE902419A
:1026D00069462846FEF782FB05B030BD0010024077
:1026E0000008014010B586B00024174800940194FA
:1026F0000294039404941349059401604721C0E9AE
:1027000001144FF6FE71C0E903148461FFF7ECF980
:1027100008B172B6FEE74FF48050009069460A484F
:10272000FFF750FA08B172B6FEE7049404A9064810
:102730000594FFF7A5F9002801D072B6FEE706B0B0
:1027400010BD00000004004090010020FEE7FEE7FD
:10275000012000F025FBFBE710B5502080F3118825
:10276000BFF34F8FBFF36F8F01F020FC18B1044906
:102770004FF080500860002080F3118810BD0000E9
:1027800004ED00E030B593B028216846FDF773FEF4
:1027900014210AA8FDF76FFE002501200F95109562
:1027A0001195010412958DE8230004904FF4E01078
:1027B000CDE90810022407946846FEF7CFFF08B160
:1027C00072B6FEE70AA90F2081E831004FF480605D
:1027D000CDE90D0502210AA8FEF7C4FE08B172B6C4
:1027E000FEE74FF4004011900F940FA8FEF744FE4F
:1027F000002801D072B6FEE713B030BD704700006C
:102800000148FFF74EBA0000C8040020F0B5026886
:10281000164B174C174D4FF08047984205D0B842E1
:1028200003D0A04201D0A84203D122F070064A682A
:102830003243984205D0B84203D0A04201D0A8420A
:1028400003D122F44074CA6822434C6922F080020A
:10285000224302608A68C2620A688262984201D199
:102860000969016301214161F0BD0000002C0140B4
:10287000000400400008004010B5846842EA0322CA
:1028800024F47F440A432243826010BD826822F010
:1028900070020A4342F007018160704710B5036A75
:1028A000046A24F001040462846924F0F00444EA18
:1028B000021423F00A020A438461026210BD10B5BB
:1028C000036A046A24F010040462846923F0A003FC
:1028D00024F4704444EA023243EA01118261016245
:1028E00010BD10B5406A0021C185C184FFF79AFA76
:1028F00010BD01680C3151E8002F22F4907241E8BC
:102900000023002BF5D10168143151E8002F22F08B
:10291000010241E80023002BF5D1016B012909D107
:1029200001680C3151E8002F22F0100241E8002329
:10293000002BF5D1202180F842100021016370475F
:1029400008B590F84210222901D0022008BD826803
:102950004FF480539A4201D1016921B1816A9A42B0
:102960001BD04AB10AE00268816A5268C2F30802C9
:102970000A80816A891C08E0026972B102685268A3
:1029800002F07F020A70816A491C8162C18D491E72
:102990000904090CC18503D01BE002685268F1E705
:1029A0000168CA6822F02002CA600168CA6822F47D
:1029B0008072CA6001684A6922F001024A612021DE
:1029C00080F8421000214163026B012A03D0FFF717
:1029D00009FC002008BD016301680C3151E8002F9B
:1029E00022F0100241E80023002BF5D101680A68AB
:1029F000D20602D50A6849680091818DFFF711FA65
:102A0000E7E7000070B5044600680169E26821F458
:102A10004051114301612169A0680843616908437D
:102A20002168CA6841F20C639A430243CA60206875
:102A30004169A26921F44071114341611E49206836
:102A4000884202D1FEF754FE01E0FEF741FE00EBA2
:102A5000C00101EB0012606864218000B2FBF0F35A
:102A6000B3FBF1F36FF018067343B2FBF0F5B2FB62
:102A7000F0F605EB8305322303EB0515B5FBF1F505
:102A8000B6FBF1F605F0F00505EB0615B2FBF0F626
:102A9000B2FBF0F0B0FBF1F06FF01802504306EB20
:102AA000800003EB0010B0FBF1F0216800F00F0094
:102AB0002844886070BD0000003801408162828532
:102AC000C28500214164222180F84210016921B1B0
:102AD0000168CA6842F48072CA6001684A6942F0BB
:102AE00001024A610068C16841F02001C160002014
:102AF00070472DE9F041984617460E460446069D5C
:102B000027E0681C25D02DB1FEF75EFAA0EB080087
:102B1000A8421ED920680C3050E8001F21F4D07163
:102B200040E80012002AF5D12068143050E8001F58
:102B300021F0010140E80012002AF5D1202084F89C
:102B4000410084F84200002084F840000320BDE8E2
:102B5000F0812068006836EA000004D00020B84206
:102B6000CFD00020F3E70120F9E700000148FFF78C
:102B70005BB9000020020020FEE70907090E0028CB
:102B800004DB00F1E02080F80014704700F00F0033
:102B900000F1E02080F8141D7047000070B541F28C
:102BA0008830FEF709F9184D0024184A2C7018A136
:102BB0002846FDF759FB2846FDF7C7FB82B24FF4C4
:102BC0007A762946334601F59070FFF715FB01220E
:102BD00011461248FEF7F2F948F6B800FEF7ECF895
:102BE0002C700FA12846FDF73FFB2846FDF7ADFBF3
:102BF00082B22946334601F59070FFF7FDFA304660
:102C0000BDE87040FEF7D8B8B800002014000020DE
:102C10004154442B383425733B0D0000000C014017
:102C20004154480D00000000EFF30580002800D05B
:102C30000120704798B0FEF75DFBFFF7A3FDFFF79B
:102C40001BFD494847494FF4165600240160C0E96E
:102C500001640C25C460C0E904458461C461FFF7C8
:102C600019FA08B172B6FEE7FFF73CFD3E483F494E
:102C7000E43801603E49C0E901144FF48041C0E9E5
:102C8000034144618461C4610462FEF7A3F908B1A1
:102C900072B6FEE73448374948380160C0E901643C
:102CA000C460C0E904458461C461FFF7F3F908B169
:102CB00072B6FEE7FFF790FCFFF7B6FC2A49022048
:102CC000E439009010234E2201F59670FDF7D7FCF1
:102CD0002548002211464830FDF722FD224826A152
:102CE0004830FDF742FD012210212648FEF766F923
:102CF0002548FDF771FF24483030FDF76DFF1A4875
:102D0000012222494838FFF75FFA1694012116A8DC
:102D1000179400F051F81D4C1C22E41E1C49E06081
:102D200001A8FDF776FB002101A800F0BFF81849C3
:102D300020611C221C3108A8FDF76BFB002108A8AC
:102D400000F0B4F8124960601C2238310FA8FDF77A
:102D500060FB00210FA800F0A9F8A06000F027F8A0
:102D6000FEE7000000480040200200200054004020
:102D7000A08601000044004057656C636F6D6520BC
:102D80000000000000080140DC00002003000020DB
:102D9000D842000801460020842900D0C81C704792
:102DA00010B500B9012000F05DFC002010BD10B589
:102DB00000F0F8FC002010BD38B543684BB1012984
:102DC00009D10320002200901146012000F0CEFD21
:102DD00038BD012901D0002038BD03220021012087
:102DE00000F0A0FD040004D000231A46194600F0AC
:102DF00035FE204638BD000038B500240546009455
:102E0000FFF712FF90B16946284600F0D7FE01286F
:102E100001D0FF2038BD009888B10A494FF080509A
:102E20000860BFF34F8FBFF36F8F08E000231A468F
:102E30001946284600F012FE012800D0FF24204643
:102E400038BD000004ED00E038B505004FF000008B
:102E500000900FD00024481C0ED001B10C46FFF7A3
:102E6000E3FEB8B16A460021284600F0F5FE0128CD
:102E700016D104E0802038BD4FF0FF34EFE7009812
:102E800080B109494FF080500860BFF34F8FBFF306
:102E90006F8F07E02146284600F02CFF012801D063
:102EA000FF2038BD002038BD04ED00E07FB50D46A1
:102EB00004464169B0F9080081B1A16971B1FFF719
:102EC00069FFD4E905128DE80700D4E900102B460C
:102ED000226901F032F8039004B070BDFFF75AFF89
:102EE00003A9CDE90001208A2B4682B2D4E9001063
:102EF00000F0F6FF012801D00020EDE70398EBE792
:102F00002DE9F041184C0F46054666692068001D02
:102F100000F0BAFA38B9206890F82C1001208840E7
:102F2000A1698143A161681C07D137B12168BDE85F
:102F3000F0410E48091D00F0EBBA20683544B54257
:102F40004560216805D2A068BDE8F041091D00F088
:102F5000C7BA6068091D00F0C3FA206B854200D231
:102F60002563BDE8F081000058000020EC0500203A
:102F70002DE9F041054600F0D7FA2E4C2069401C9F
:102F8000206120682C4F10B1E06940B32DE025602E
:102F90002069012829D1002606EB860007EB800076
:102FA00000F090FA761C072EF6D323488C3000F000
:102FB00089FA2148A03000F085FA1F48B43000F0AB
:102FC00081FA1D48C83000F07DFA1B48DC3000F063
:102FD00079FA19488C3060601430A06005E02068F0
:102FE000E96AC06A884200D82560E06A401CE06255
:102FF000E96A0120A26988401043A06101EB8100C9
:1030000007EB8000291D00F083FA00F0ADFAE069BB
:1030100000280CD02068E96AC06A884207D20749B4
:103020004FF080500860BFF34F8FBFF36F8FBDE844
:10303000F0810000580000201005002004ED00E0A1
:1030400030B4026C0B46002A0BD0C1681144C16039
:103050004468A14201D30168C16030BC1846FDF745
:1030600093B930BC70472DE9F041856B1746044693
:103070000026026C82B1C7B1E068FDF785F9E1680E
:10308000206C091AE1602268914202D26168081A34
:10309000E060022F16D017E02068A8B9606800F041
:1030A000E9FF0646002060600EE0A068FDF76CF9BD
:1030B000216CA0680844A0606168884204D320683D
:1030C000A06001E005B16D1E6D1CA5633046BDE832
:1030D000F08110B5044690F8510058B101280CD089
:1030E00002280FD0502080F31188BFF34F8FBFF319
:1030F0006F8FFEE7206B00F04BFA2046BDE81040D2
:1031000000F046BA10BD000010484FF4406142077D
:1031100006D0C01D0D4920F00700411AC1F54061DD
:103120000B4A00230144C2E900030839103A21F098
:10313000070111604B600B600B1AC0E9001393602C
:103140004FF000405360D060704700000006002040
:10315000A4000020144E154CA6F1C8074FF080586B
:10316000DFF84C9012E000BF00F0DEF9F068C568AF
:10317000281D00F089F92069401E2061E068401E8A
:10318000E06000F0F1F92846FFF7A3FFE0680028AF
:10319000EAD138680128F9D9C9F80080BFF34F8F08
:1031A000BFF36F8FF2E70000D80500205800002021
:1031B00004ED00E00346009829B10260C0E90F3138
:1031C000012100F007BC0060F8E72DE9F0479A46BE
:1031D000DDE9098481466FF00303206B03EB820273
:1031E0001044089D20F00706700707D0502080F398
:1031F0001188BFF34F8FBFF36F8FFEE723180A5C70
:1032000083F834200A5C12B1401C1028F6D3002742
:1032100084F84370072D00D30625E562C4E91157F1
:10322000201D00F05AF904F1180000F056F924614D
:10323000C5F107006462A061E76484F850705246EB
:103240004946304600F00EF92060B8F1000F01D079
:10325000C8F80040BDE8F08730B5114900E01146DC
:103260000A688242FBD34B685C18844203D14068F1
:1032700018444860084643681C18944209D1084C19
:10328000103C2468A24209D052681A4442600A687D
:1032900012680260814200D0086030BD0460F9E726
:1032A000A400002010B5044600F03EF9A06B28B140
:1032B0005FF0000400F058F9204610BD0124F9E742
:1032C00006484168096829B14168C968C968496800
:1032D000016370474FF0FF31FAE70000580000200B
:1032E00008484068401C4FF0500080F3118804D01B
:1032F000BFF34F8FBFF36F8FFEE7BFF34F8FBFF367
:103300006F8FFEE7AC0000202DE9F041044600F08D
:103310000BF994F9455004F1240609E0606A48B1BC
:10332000304600F03DFF08B100F0CAF96D1E6DB2E5
:10333000002DF3DC4FF0FF3684F8456000F014F9FF
:1033400000F0F2F894F9445004F1100709E0206904
:1033500048B1384600F024FF08B100F0B1F96D1E05
:103360006DB2002DF3DC84F84460BDE8F04100F05C
:10337000FBB800002DE9F0410546002700F048FAAF
:10338000314E306808B9FFF7BFFEF06805424BD1F7
:10339000C5B3083568070ED005F00700C0F1080076
:1033A0000544680707D0502080F31188BFF34F8F82
:1033B000BFF36F8FFEE72DB37068854234D8224883
:1033C000103001460C6801E020460C466168A942B5
:1033D00002D221680029F7D131688C4224D00768D5
:1033E0002168016060680837411B10290FD96019F6
:1033F000420708D0502080F31188BFF34F8FBFF3EE
:103400006F8FFEE710E041606560FFF725FF6168A0
:103410007068401A7060B268904200D2B060F06884
:1034200001430020C4E9000100F0F4FE780707D052
:10343000502080F31188BFF34F8FBFF36F8FFEE7EB
:103440003846BDE8F0810000940000200449086877
:1034500018B10868826C521C8264086870470000CA
:103460005800002010B5031F4FF080741C601B1F14
:1034700021F001011960191F024B0B60143940380B
:103480000A6010BDE1320008D0E9013201699A609A
:10349000D0E901235A604A68824201D182684A60B9
:1034A000002202610868401E08600868704700003A
:1034B000034B036003F154000860802010607047E4
:1034C0007402002000F108014FF0FF32C0E9011240
:1034D000C1600161002101607047002101617047F6
:1034E00030B50B685A1C02D000F1080202E00269F4
:1034F00004E02246546825689D42FAD953684B601F
:1035000099608A60516008610168491C016030BDA2
:1035100042684A6093688B60936859609160086163
:103520000168491C01607047502080F31188BFF387
:103530004F8FBFF36F8F0A494868401C48600128CD
:103540000CD10848006810F0FF0F07D0502080F31E
:103550001188BFF34F8FBFF36F8FFEE770470000F6
:10356000AC00002004ED00E00849486828B1401E86
:10357000486001D180F311887047502080F3118892
:10358000BFF34F8FBFF36F8FFEE70000AC0000204A
:1035900070B5002827D0144DA0F108046168E868D0
:1035A000014207D1502080F31188BFF34F8FBFF342
:1035B0006F8FFEE722683AB1502080F31188BFF385
:1035C0004F8FBFF36F8FFEE78143616000F020F9FA
:1035D00060686968084468602046FFF73DFEBDE802
:1035E000704000F017BE70BD940000204FF0E02046
:1035F00000210161816105494FF47A720968B1FBCC
:10360000F2F1491E41610721016170475400002019
:1036100010B5FCF705FE114910280ED300F1E0208B
:1036200090F8F0030A78904207D2502080F3118876
:10363000BFF34F8FBFF36F8FFEE7094800688968BB
:1036400000F4E060884207D9502080F31188BFF36E
:103650004F8FBFF36F8FFEE710BD0000AC0000205E
:103660000CED00E010B5020014D00F48806B38B1AB
:10367000502080F31188BFF34F8FBFF36F8FFEE7A9
:1036800000F0C6F800211046FFF73AFC00F0C2FD3A
:10369000002807D105494FF080500860BFF34F8FD5
:1036A000BFF36F8F10BD00005800002004ED00E054
:1036B00002498A6A026049694160704758000020E7
:1036C00001490120486270475800002010B50C469F
:1036D00050B1094909681831FFF702FF2046BDE8DB
:1036E00010400121FFF70CBC502080F31188BFF37C
:1036F0004F8FBFF36F8FFEE75800002070B50400B6
:103700004BD0A26CA2B1606C884200D30146E06A43
:10371000884242D0012A40D1204D2A6894420FD1DC
:10372000502080F31188BFF34F8FBFF36F8FFEE7F8
:10373000502080F31188BFF34F8FBFF36F8FFEE7E8
:10374000E162A269002A02DBC1F10701A161144E06
:1037500000EB8000616906EB800081421DD1201DD5
:10376000FFF792FE012150B9E06A00EB800256F8A3
:10377000222022B9AA6901FA00F08243AA61E06A14
:10378000AA6981401143A96100EB800006EB80002B
:10379000211DBDE87040FFF7BBBE70BD5800002082
:1037A0001005002010B586B00024039405AA04A9D2
:1037B00003A80494FFF77CFEDDE903010094CDE942
:1037C000011000230EA11048059A00F0B6FB0F4926
:1037D0000028486311D0502080F31188BFF34F8F29
:1037E000BFF36F8F4FF0FF3008630120C8614C6159
:1037F00006B0BDE8104000F041B806B010BD0000B2
:1038000049444C4500000000553100085800002094
:103810000248816B491C81637047000058000020FA
:103820001448816B11B1012141627047002141624E
:103830008169B1FA81F1C1F11F0101EB81020E49E9
:1038400051F822306BB101EB820101F108034A68A3
:1038500052684A609A4201D152684A60D168016058
:103860007047502080F31188BFF34F8FBFF36F8FE5
:10387000FEE7000058000020100500201CB5264976
:1038800008780190FF20087008788DF800009DF8F6
:1038900000009DF8002000F0F000904207D050207A
:1038A00080F31188BFF34F8FBFF36F8FFEE79DF852
:1038B00000001A4B00F0500018700720986005E0D7
:1038C0009DF8002052008DF80020401E9DF8002039
:1038D0001206F5D49860032807D0502080F3118891
:1038E000BFF34F8FBFF36F8FFEE74FF440709860C8
:1038F000019808700A48016841F47001016001688C
:1039000041F070410160FFF771FE00205860FCF744
:1039100051FC00201CBD000000E400E0AC000020D1
:1039200020ED00E0F8B517460E46050014D0DEB1D4
:1039300005FB06F04830FFF71DFD04000AD000200B
:1039400084F8460004F148023B463146284600947C
:10395000FFF730FC2046F8BD502080F31188BFF3FC
:103960004F8FBFF36F8FFEE70020E3E738B5049D6C
:1039700018B153B1CAB181B120E0502080F3118851
:10398000BFF34F8FBFF36F8FFEE7502080F3118896
:10399000BFF34F8FBFF36F8FFEE7502080F3118886
:1039A000BFF34F8FBFF36F8FFEE739B1502080F325
:1039B0001188BFF34F8FBFF36F8FFEE748241C467B
:1039C000012384F846302B460094FFF7F3FB204692
:1039D00038BD000070B50D46040025D0FFF7A4FDEA
:1039E000D4E90F20216802FB001161600021A1636E
:1039F0002168A1600A46D4E90F01401E00FB0121A5
:103A0000E16021464FF0FF3001F8440F487004F1A7
:103A100010008DB1FFF756FD04F12400FFF752FDB1
:103A2000FFF7A2FD012070BD502080F31188BFF385
:103A30004F8FBFF36F8FFEE721690029F0D000F0B0
:103A4000AFFB0028ECD004494FF080500860BFF372
:103A50004F8FBFF36F8FE3E704ED00E02DE9FF47E1
:103A600082B01D468A464FF00008040003D0BAF128
:103A7000000F08D011E0502080F31188BFF34F8F62
:103A8000BFF36F8FFEE7206C38B1502080F31188B0
:103A9000BFF34F8FBFF36F8FFEE7022D0AD1E06BAC
:103AA000012807D0502080F31188BFF34F8FBFF358
:103AB0006F8FFEE700F06CFA3F4F4FF000094FF0B8
:103AC000805648B9049838B1502080F31188BFF36C
:103AD0004F8FBFF36F8FFEE7FFF726FDA06BE16B03
:103AE000884207D3022D05D00498D0B1B8F1000F59
:103AF0001AD01EE02A4651462046FFF7B4FA616A02
:103B000019B104F1240000F04BFB20B13E60BFF37B
:103B10004F8FBFF36F8FFFF727FD012006B0BDE881
:103B2000F087FFF721FD22E06846FFF7C1FD4FF067
:103B30000108FFF719FDFFF76BFEFFF7F5FC94F99D
:103B40004400401C01D184F8449094F94500401C85
:103B500001D184F84590FFF707FD04A9684600F0FD
:103B600085F930B12046FFF7CFFB00F053FB002072
:103B7000D4E7FFF7D9FCA06BE16B884213D1FFF7C4
:103B8000F3FC04F110000499FFF7A0FD2046FFF7B5
:103B9000BBFB00F03FFB00289ED13E60BFF34F8F80
:103BA000BFF36F8F98E7FFF7DFFC2046FFF7ACFB12
:103BB00000F030FB90E7000004ED00E070B50E4629
:103BC000040009D0206C78B1502080F31188BFF335
:103BD0004F8FBFF36F8FFEE7502080F31188BFF344
:103BE0004F8FBFF36F8FFEE7206848B9606838B128
:103BF000502080F31188BFF34F8FBFF36F8FFEE724
:103C0000FFF706FD5020EFF3118580F31188BFF315
:103C10004F8FBFF36F8FA16BE06B884218D994F977
:103C20004500491CA163411C04D0401C84F8450098
:103C300001200EE0606A0028FAD004F1240000F0B0
:103C4000AFFA0028F4D0002EF2D001203060EFE768
:103C5000002085F3118870BD2DE9F0479046894614
:103C6000040003D0B9F1000F08D011E0502080F318
:103C70001188BFF34F8FBFF36F8FFEE7206C38B111
:103C8000502080F31188BFF34F8FBFF36F8FFEE793
:103C9000FFF7BEFC5020EFF3118680F31188BFF3CD
:103CA0004F8FBFF36F8FA76BF7B194F9445049461C
:103CB0002046FFF7C5F97F1EA763681C04D06D1C62
:103CC00084F84450012010E020690028FAD004F163
:103CD000100000F065FA0028F4D0B8F1000FF1D020
:103CE0000121C8F80010EDE7002086F31188BDE837
:103CF000F08700002DE9F343002683B00400354629
:103D000009D0206C78B1502080F31188BFF34F8F19
:103D1000BFF36F8FFEE7502080F31188BFF34F8F02
:103D2000BFF36F8FFEE700F033F9DFF83C814FF00F
:103D300000094FF0805748B9049838B1502080F3FB
:103D40001188BFF34F8FBFF36F8FFEE7FFF7ECFBD8
:103D5000A06BC8B1401EA063206810B9FFF776FBC6
:103D60006060206950B104F1100000F019FA28B128
:103D7000C8F80070BFF34F8FBFF36F8FFFF7F4FBEE
:103D8000012005B0BDE8F083049808B166B10FE0EA
:103D90003DB1502080F31188BFF34F8FBFF36F8F79
:103DA000FEE7FFF7E1FB5DE06846FFF781FC0126D7
:103DB000FFF7DAFBFFF72CFDFFF7B6FB94F94400A1
:103DC000401C01D184F8449094F94500401C01D175
:103DD00084F84590FFF7C8FB04A9684600F046F850
:103DE0000028204612D0FFF78FFA00F013FA204681
:103DF000FFF758FA0028A9D09DB3FFF795FB606A3A
:103E000050B3206B0068C0F1070126E0FFF74AFAC3
:103E1000E0B1206838B9FFF787FB606800F076F9F9
:103E20000546FFF7A1FB04F124000499FFF74EFCBF
:103E30002046FFF769FA00F0EDF9002886D1C8F8AE
:103E40000070BFF34F8FBFF36F8F7FE72046FFF700
:103E50005BFA00F0DFF979E700216068FFF74EFCBC
:103E60009FE7FFE700208CE704ED00E02DE9F0413B
:103E70000C46050011D0C4B1FFF756FB174B5A6929
:103E80006E682068911B471C17D02F689B6A9F4261
:103E900019D0964217D8012410E0502080F31188E1
:103EA000BFF34F8FBFF36F8FFEE7502080F3118871
:103EB000BFF34F8FBFF36F8FFEE70024FFF754FB74
:103EC0002046BDE8F081884205D9401A2060284686
:103ED000FFF7EEFBF1E700202060DCE75800002050
:103EE0002DE9FF5F8346DDE90E87994616468A462F
:103EF0009000FFF73FFA05001CD05420FFF73AFA74
:103F0000040014D00020256384F85100CDE902405C
:103F1000CDE900874B46324651465846FFF755F9E2
:103F20002046FFF725F8012004B0BDE8F09F2846A1
:103F3000FFF72EFB4FF0FF30F6E7F0B585B0DDE977
:103F40000B640A9DA6B1DCB15427009726630226B4
:103F500084F85160002604AFCDE90246CDE9005750
:103F6000FFF733F92046FFF703F8049805B0F0BDDA
:103F7000502080F31188BFF34F8FBFF36F8FFEE7A0
:103F8000502080F31188BFF34F8FBFF36F8FFEE790
:103F90000548C16919B1806B18B100207047012034
:103FA0007047022070470000580000202DE9F041C2
:103FB0002E4C0027A06B40B1206A401C2062606A32
:103FC00000B101273846BDE8F0816669761C66615C
:103FD00013D16068006838B1502080F31188BFF3B6
:103FE0004F8FBFF36F8FFEE76068A1686160A060CC
:103FF000A06A401CA062FFF763F9206BDFF87080B5
:10400000864209D36068006880B16068C068C5688E
:10401000686886420DD220632068C06A00EB800188
:1040200058F821000128CAD90127C8E74FF0FF300E
:10403000F1E7281DFFF728FAA86A18B105F1180062
:10404000FFF722FAE86A0121A26981401143A161C8
:1040500000EB800108EB8100291DFFF759FAE86A9F
:104060002168C96A8842CDD30127CBE758000020D8
:104070001005002070B504004FF0000140D0214D24
:104080002868844207D0502080F31188BFF34F8FF7
:10409000BFF36F8FFEE7A06C38B1401EA064636C65
:1040A000E26A9A422CD040B12AE0502080F3118875
:1040B000BFF34F8FBFF36F8FFEE7201DFFF7E4F9CB
:1040C000114A012150B9E06A00EB800352F8233015
:1040D00023B9AB6901FA00F08343AB61606CE06225
:1040E000C0F10700A061E06AAB6981401943A96192
:1040F00000EB800002EB8000211DFFF709FA01218F
:10410000084670BD580000201005002070B504005E
:104110004FF0000038D0204DE16A2A68D26A9142FF
:1041200033D2A069002804DB2868C06AC0F1070008
:10413000A0611A4E01EB8101606906EB81018842A2
:104140001ED1201DFFF7A0F9012150B9E06A00EB54
:10415000800256F8222022B9AA6901FA00F08243AF
:10416000AA612868C06AE062AA6981401143A96116
:1041700000EB800006EB8000211DFFF7C9F902E08B
:104180002868C06AE062012070BD616C2A68D26A4A
:104190009142F8D370BD00005800002010050020A7
:1041A0002DE9F041C068C468ACB104F118000746BD
:1041B000FFF76AF9154DA86B0126A0B139461448DE
:1041C000FFF7A6F9E06A2968C96A88421CD901206C
:1041D0006E62BDE8F081502080F31188BFF34F8FED
:1041E000BFF36F8FFEE7201DFFF74EF9E16AAA6962
:1041F00006FA01F01043A86101EB81000449B439CB
:1042000001EB8000211DDBE70020E2E758000020E1
:10421000C40500202DE9F0472C4D00242746A86B4B
:1042200038B1FFF781F9A86B401EA863A86B40B1B5
:1042300046E0502080F31188BFF34F8FBFF36F8F9C
:10424000FEE72969224E0120D1B3A6F1B4098046C8
:104250003068E8B1F068C46804F11800FFF714F999
:10426000201DFFF711F9E06AAA6908FA00F111436D
:10427000A96100EB800109EB8100211DFFF748F9DE
:10428000E06A2968C96A8842E2D3C5F82480DFE77A
:104290000CB1FFF715F82C6A44B14646FFF786FECD
:1042A00000B16E62641EF9D100202862686A38B1DC
:1042B0000849012738070860BFF34F8FBFF36F8F9E
:1042C000FFF752F93846BDE8F0870000580000209B
:1042D000C405002004ED00E06C43000851270008ED
:1042E000000000000000000080000000000000004E
:1042F00000000000584300085D2500080000000091
:10430000000000008000000000000000000000002D
:1043100060430008F10700080000000000000000F2
:104320008000000000000000000000000102020305
:104330000405060708090A0B0C0D0E0F10100000EB
:104340000000000000000102030406070809000045
:1043500000000102030400007461736B4D513200D0
:104360007461736B466C616D650000006465666125
:10437000756C745461736B00984300080000002052
:10438000B80000002801000850440008B8000020D0
:10439000A8170000440100081A00000000000000F7
:1043A000000000000000000000000000383135313E
:1043B00032333639360067617300000000000000B8
:1043C000000000000000000000006275726E000036
:1043D00000000000000000000000000000000000DD
:1043E0000100000010000000000000000024F400A4
:1043F00000000000000000000000000000000000BD
:1044000000000000000000000000000000000000AC
:10441000000000000000000000000000000000009C
:10442000000000000000000000000000000000008C
:10443000000000000000000000000000000000007C
:104440000000000000000000AAAAAAAA00000000C4
:04000005080000ED02
:00000001FF
